:020000040800F2
:100000003804002099060008A1050008A30500088F
:10001000A5050008A7050008A905000800000000C4
:10002000000000000000000000000000AB05000818
:10003000AD05000800000000AF050008B10500088C
:10004000B5060008B9060008BD060008C10600088C
:10005000C5060008C9060008CD060008D10600083C
:10006000D5060008D9060008DD060008E1060008EC
:10007000E5060008E9060008ED060008F10600089C
:10008000F5060008F9060008FD060008010700084B
:1000900005070008090700080D07000811070008F8
:1000A00015070008190700081D07000821070008A8
:1000B00025070008290700082D0700083107000858
:1000C00035070008390700083D0700084107000808
:1000D00045070008490700084D07000851070008B8
:1000E000B5050008550700085907000810B5044673
:1000F0000FF2E80082B050F82400012100F0B4F8BB
:100100000FF2D40131F81400ADF8000010210320E3
:100110008DF802008DF8031069462D4850F8240030
:1001200000F0B6F813BD2A490FF2AC0351F82010C5
:10013000CA6833F810004240CA60704730B50446C0
:100140000FF2A00085B050F824000D46012140F0C8
:10015000010000F089F804210FF284001D4A8DF897
:10016000071001A930F81400ADF8040052F824007B
:1001700000F08EF8012D28D10FF27400015D0FF20E
:100180006C00005D00F0D6F80FF25C0030F814004F
:10019000029000218DF80C1008208DF80D0001212F
:1001A0008DF80E1002A800F0D9F80FF24800005D9B
:1001B0008DF800000F218DF801108DF802106846AF
:1001C00001218DF8031000F00FF905B030BD0000DB
:1001D000140000201800002020000000040000008F
:1001E00000200000100000000020000002000000BD
:1001F0000D0000002800000078B52049204B0A6857
:1002000002F00C02082A0ED10A680C681D4DC2F3D8
:100210008342921C5543E40302D50C68A60301D522
:100220002B4600E053430360174A0B680468C3F38E
:100230000313D35CDC4044600B684468C3F30223BF
:10024000D35CDC4084600B684468C3F3C223D35C96
:10025000DC40C4600968C368C1F381311144097C82
:10026000B3FBF1F1016171BD084A0029116814BFA7
:10027000084321EA000010607047000004100240AB
:1002800000127A0000093D00000000201810024012
:100290002DE9F841CC78002204F00F03E40644BFB6
:1002A0008C7823430C8801254FF00F08E7B2E7B1A3
:1002B000076805FA02FC0CEA0406664511D14FEA0C
:1002C000820E08FA0EF6B74303FA0EF63743CE78DD
:1002D000282E08BFC0F814C003D0482E08BFC0F8AD
:1002E00010C0521C082AE4D30760B4F5807F1FDBDE
:1002F0004768002202F1080605FA06FC0CEA04062B
:10030000664511D14FEA820E08FA0EF6B74303FA9A
:100310000EF63743CE78282E08BFC0F814C0CE782A
:10032000482E08BFC0F810C0521C082AE2D347600C
:10033000BDE8F18130B5084B8A0021F0030102F0DD
:100340000C025C580F259540AC435C5090405D58C2
:100350002843585030BD00000800014030B5046803
:1003600081791F4AE44321B315682C401460546816
:1003700001688C43546004791419256801680D43A1
:100380002560946801688C439460D46801688C434C
:10039000D46041790468102907D191680C439460B6
:1003A000D16800680143D16030BD505804435450B7
:1003B00030BD0079121810680440146030BD084B3D
:1003C00019685B6902460020114013421CBF0029D6
:1003D0000120704700BF034908607047000000001B
:1003E000000401401404014070B50378C1781C4634
:1003F0000122D9B1124B1B68457803F4E063C3F5C1
:10040000E0631B0AC3F104018D4081780F26DE40B2
:1004100031400D430B4B2D011D5501780A4B01F066
:100420001F008240490943F8212070BD03F01F03DB
:10043000064802FA03F3640940F8243070BD000056
:100440000CED00E000E400E000E100E080E100E00D
:10045000294981B0086840F0010008604A682748CF
:1004600002404A600B68264803400B60086820F48D
:10047000802008604FF41F004A6822F4FE024A60A0
:100480008860002000900090486820F47410486054
:10049000486840F4601048601A48026842F0100250
:1004A00002600368DB08DB000360026842F00202BE
:1004B00002604868486048684860486840F4806066
:1004C00048600A6842F080720A6008688201FCD5C0
:1004D0004868800880004860486840F00200486032
:1004E000486800F00C000828FAD14FF00061064877
:1004F000016001B070470000001002400000FFF8EA
:10050000FFFFF6FE0020024008ED00E010B5214C90
:1005100082B0201DFFF770FEA1684FF47A70B1FB26
:10052000F0F0401EB0F1807F08D21B491B4A4860A2
:10053000F020107000228A60072008600020FFF77A
:10054000D5FD01210020FFF7F9FD0020207005E016
:100550000020FFF7E8FD322000F00DF82178002997
:10056000F6D020780128F9D10020FFF7DCFDC82063
:1005700000F001F8F2E700900099A161A06900285D
:10058000FCD170470349886910B18A69521E8A619B
:10059000704700001C00002010E000E023ED00E0A8
:1005A0007047FEE7FEE7FEE7FEE7704770477047DB
:1005B000FFF7E8BF80B54FF40050FFF700FF68B1C8
:1005C0000748017801290EBF00220278521C0270F0
:1005D0004FF40050BDE80240FFF7FCBE01BD000033
:1005E0001C00002030B5016884684218416802EBA5
:1005F0005103C9070BD54C4409E012F9011B12F84D
:10060000015B002904F8015B05D5491CF9D19A4228
:10061000F3D10C3030BD491EF1D5F8E710B50749CC
:1006200079441831064C7C44163404E00A68081DED
:10063000114488470146A142F8D110BD08000000CE
:1006400014000000A1FFFFFF140100003A000000A9
:100650000000002000F00BF8002801D0FFF7DEFFBB
:100660000020AFF30080FFF751FF00F002F80120F7
:10067000704700F001B800000746384600F002F865
:10068000FBE7000080B5AFF30080024A110018209C
:10069000ABBEFBE726000200014880470148004747
:1006A00051040008A9060008AFF30080AFF30080F2
:1006B000FFF7D0FFFFF7FEBFFFF7FEBFFFF7FEBF5C
:1006C000FFF7FEBFFFF7FEBFFFF7FEBFFFF7FEBF5E
:1006D000FFF7FEBFFFF7FEBFFFF7FEBFFFF7FEBF4E
:1006E000FFF7FEBFFFF7FEBFFFF7FEBFFFF7FEBF3E
:1006F000FFF7FEBFFFF7FEBFFFF7FEBFFFF7FEBF2E
:10070000FFF7FEBFFFF7FEBFFFF7FEBFFFF7FEBF1D
:10071000FFF7FEBFFFF7FEBFFFF7FEBFFFF7FEBF0D
:10072000FFF7FEBFFFF7FEBFFFF7FEBFFFF7FEBFFD
:10073000FFF7FEBFFFF7FEBFFFF7FEBFFFF7FEBFED
:10074000FFF7FEBFFFF7FEBFFFF7FEBFFFF7FEBFDD
:10075000FFF7FEBFFFF7FEBFFFF7FEBFFC0017016C
:100760000203040102030406070809020406080044
:0907700008014000100140E40002
:04000005080006A940
:00000001FF
